:020000040800F2
:10000000600500209D01000817140008E311000896
:1000100015140008A9020008631800080000000079
:10002000000000000000000000000000251500088E
:10003000AB02000800000000191400082715000892
:10004000B7010008B7010008B7010008B7010008B0
:10005000B7010008B7010008B7010008B7010008A0
:10006000B7010008B7010008B7010008B701000890
:10007000B7010008B7010008B7010008B701000880
:10008000B7010008B7010008B7010008B701000870
:10009000B7010008B7010008B7010008B701000860
:1000A000B7010008B7010008B7010008B701000850
:1000B000B7010008B7010008B7010008B701000840
:1000C000B7010008B7010008B70100081D140008B7
:1000D000B7010008B7010008B7010008B701000820
:1000E000B7010008B7010008B7010008B701000810
:1000F000B7010008B7010008B7010008B701000800
:10010000B7010008B7010008B7010008B7010008EF
:10011000B7010008B7010008B7010008B7010008DF
:10012000B7010008B7010008B7010008B7010008CF
:10013000B70100080000000000000000B70100083F
:10014000B7010008B7010008B7010008B7010008AF
:10015000B7010008B7010008B7010008B70100089F
:10016000B7010008B7010008B7010008B70100088F
:10017000B7010008B70100080000000000000000FF
:10018000B7010008B7010008DFF80CD000F07AF8DA
:1001900000480047A5180008600500200648804771
:1001A00006480047FEE7FEE7FEE7FEE7FEE7FEE75C
:1001B000FEE7FEE7FEE7FEE7B1150008890100084B
:1001C0002DE9F05F0546002092469B46884606468C
:1001D000814640241BE0284641464746224600F01F
:1001E00041F853465A46C01A914110D31146184659
:1001F000224600F028F82D1A67EB01084F462246E8
:100200000120002100F01FF817EB00094E41201ECD
:10021000A4F10104DFDC484631462A464346BDE8E6
:10022000F09FD2B201E000F8012B491EFBD27047CB
:100230000022F6E710B513460A4604461946FFF7B2
:10024000F0FF204610BD202A04DB203A00FA02F11C
:10025000002070479140C2F1200320FA03F31943B4
:1002600090407047202A04DB203A21FA02F0002156
:10027000704721FA02F3D040C2F1200291400843B6
:1002800019467047064C074D06E0E06840F0010350
:1002900094E8070098471034AC42F6D3FFF778FF94
:1002A0007C1A00089C1A0008FEE7704770B5437975
:1002B000012B1AD0012646710223037105682C68B0
:1002C00040F6FE7393409C43D1E900310B439340C9
:1002D00023432B6001680B68C0249440A3430B6048
:1002E000067100214171084670BD022070BD70B5D5
:1002F000040003D02079002510B105E0012070BD75
:100300006571204600F008F8022020712561012067
:100310002071002070BD000010B586B00446142185
:100320006846FFF785FF1149206888421CD11048B4
:100330000021026842F000520260006800F00050A4
:1003400005900B481038026842F001020260006814
:1003500000F001000590102000900320CDE901017C
:100360006946044800F02CF806B010BD0074004047
:10037000403802400000024090F83510022903D0B6
:100380008021416501207047052180F83510006803
:10039000016821F0010101600020704770B504463A
:1003A00000F0ECF80546601C02D0044800780444D4
:1003B00000F0E4F8401BA042FAD370BD0800002012
:1003C0002DE9F84FDFF87CB100224FF001084FF023
:1003D000030A4FF00F090BF1040E00BF0B6808FA77
:1003E00002F42340A3426ED14D68022D01D0122D9C
:1003F0000ED1D50800EB850CDCF820505607F70E1F
:1004000009FA07F6B5430E69BE402E43CCF82060CA
:10041000066855000F790AFA05FC07F0030726EA7B
:100420000C06AF40374307604E68012E05D0022E00
:1004300003D0112E01D0122E0ED18668CF6826EA85
:100440000C06AF40374387604668A6430C79C4F377
:100450000014944034434460C6688C6826EA0C0655
:10046000AC403443C4604C68E40065D5364C256824
:1004700045F480452560246822F0030504F4804497
:100480000094324C2E19D6F8084895072F0F09FA18
:1004900007F5AC432E4DA84201D1002524E02D4D97
:1004A000A84201D101251FE02B4DA84201D1022510
:1004B0001AE02A4DA84201D1032515E0284DA84293
:1004C00002D1042510E037E0264DA84201D10525D0
:1004D0000AE0254DA84201D1062505E0234DA8429A
:1004E00001D1072500E00825BD402543C6F808587E
:1004F000DBF800405D464E689C43F60300D51C4384
:100500002C60DEF8004075464E689C43B60300D56B
:100510001C432C600B4D08352C684E689C43F6023A
:1005200000D51C432C60074D0C352C684E689C434D
:10053000B60200D51C432C60521C102AFFF44EAFAB
:10054000BDE8F88F003C01404438024000300140D3
:10055000000002400004024000080240000C02407B
:10056000001002400014024000180240001C02402B
:100570000AB1816170470904FBE700000148806807
:10058000704700000800002002488168027811448A
:1005900081607047080000200B4810B5016841F4E5
:1005A00000710160016841F480610160016841F4FB
:1005B00080710160032000F06FF8002000F006F861
:1005C00000F024F8002010BD003C024070B50D4D35
:1005D00004464FF47A712878B1FBF0F00A490968B3
:1005E000B1FBF0F000F0A6FC48B9102C07D20022B5
:1005F0002146501E00F030F800206C6070BD0120D4
:1006000070BD000008000020140000200A4808B552
:10061000016841F480410160006800F4804000906E
:100620000548001F016841F080510160006800F03A
:100630008050009008BD000044380240002809DBCB
:1006400000F01F02012191404009800000F1E020EC
:10065000C0F8001170470000F0B40E4B1B680C4648
:10066000C3F30223C3F10705042D00D90425191D86
:10067000072901D2002300E0DB1E012606FA05F15E
:10068000491E214099409E40761E16403143F0BCE1
:1006900001F0E8B80CED00E0064900F00702086838
:1006A0004FF6FF03184040EA0220034A1043086057
:1006B000704700000CED00E00000FA052DE9F0475E
:1006C0000E46050065D0DFF81481D8F80000F7B2B7
:1006D00000F00F00B04207D288F80070D8F8000090
:1006E00000F00F00B04254D128683D4C810712D56C
:1006F000400703D5206840F4E050206028780007C8
:1007000003D5206840F4604020602068A96820F08C
:10071000F000084320602878C0072DD03049686871
:100720000839012812D0022813D0032811D00968F3
:10073000890700292DDA216821F003010143216096
:10074000FFF71CFF814641F2883A0EE009688903F1
:10075000EFE709688901ECE7FFF710FFA0EB09015B
:10076000514502D90320BDE8F0872068696800F090
:100770000C00B0EB810FEFD1D8F80010404601F02B
:100780000F01B14207D90770006800F00F00B042B6
:1007900001D00120E7E72878400705D52068E968FF
:1007A00020F4E050084320602878000706D5206830
:1007B000296920F4604040EAC100206000F016F88A
:1007C0002168084AC1F30311515CC840064908601A
:1007D0000020FFF7FBFE0020C5E70000003C0240C0
:1007E000083802406C1A000814000020154810B5A3
:1007F000006810F00C02144813D01449042A0FD0DA
:10080000082A0ED10F4C241F2268236802F03F02F1
:100810005B0207D52068C0F38810A0FB010106E049
:10082000084610BD2168C1F38811A1FB0001002317
:10083000FFF7C6FC2168C1F30141491C4900B0FB28
:10084000F1F010BD083802400024F40040787D012A
:100850002DE9F84F050076D02878DFF8F8B2BE4CC5
:10086000C00749D0DBF800105846C1F381010129C7
:1008700008D00068C0F3810002280AD1201D00685A
:10088000400206D52068800336D568680028E2D08B
:1008900032E06868B0F5803F10D0B0F5A02F206836
:1008A00010D020F480302060206820F48020206068
:1008B0006868A0B1FFF762FE06460CE0206840F4CD
:1008C0008030F4E740F480202060F7E7FFF756FE21
:1008D000801B642873D820688003F7D50CE0FFF7ED
:1008E0004DFE064605E000BFFFF748FE801B64286A
:1008F000F0D820688003F7D42878DFF8608280077A
:100900004FF000093ED5DBF80010584611F00C0FEF
:1009100009D00068C0F3810002280BD18D48001F68
:100920000068400206D42068800715D5E8680128D1
:1009300009D111E0E868B8B10120C8F80000FFF75C
:100940001DFE064605E002E1FFF718FE801B0228A7
:10095000C0D820688007F7D52068296920F0F80002
:1009600040EAC10020600DE0C8F80090FFF706FEE5
:10097000064604E0FFF702FE801B02281FD820680D
:100980008007F7D42878000722D5724E7448696929
:100990006C3671B101210160FFF7F0FD074604E0FC
:1009A000FFF7ECFDC01B022809D830688007F7D597
:1009B0000EE0C0F80090FFF7E1FD074605E083E098
:1009C000FFF7DCFDC01B02287ED830688007F7D413
:1009D0002878400768D5DFF87CA100270AF1380A9B
:1009E000DAF80000C0000BD4DAF8001041F08051B2
:1009F000CAF80010DAF80000012700F080500090DB
:100A0000584E3068C00510D4306840F480703060B3
:100A1000FFF7B4FD009005E0FFF7B0FD0099401A24
:100A2000022851D83068C005F6D54A4EA868683605
:100A300001280FD00528306810D020F00100306068
:100A4000306820F004003060A868B8B1FFF796FD68
:100A500000900FE0306840F00100F4E740F004003F
:100A60003060F7E7FFF78AFD0099411A41F28830BC
:100A7000814264D830688007F4D50EE0FFF77EFD30
:100A8000009007E0FFF77AFD0099411A41F28830A3
:100A9000814254D830688007F4D42FB1DAF80010BE
:100AA00021F08051CAF80010A869C0B3DBF800102B
:100AB000C1F3810102294AD00228484607D0C8F86C
:100AC0006000FFF75BFD00E039E005463AE047468D
:100AD000C8F86000FFF752FD064604E0FFF74EFD40
:100AE000801B02282BD820688001F7D4D5E90701A4
:100AF0000843A96A1C4A490802EB01416A6A41EAB3
:100B00008211084395F82C1040EA01611148001F3A
:100B1000016001203866FFF731FD054605E014E06D
:100B2000FFF72CFD401B022809D820688001F7D56B
:100B30000BE000BFFFF722FD401B022802D9032073
:100B4000BDE8F88F20688001F4D40020F8E7012088
:100B5000F6E7000008380240003802400000474233
:100B6000800E4742007000400000FFFF7047000009
:100B700038B5016804464A688868C043430606D50C
:100B8000C30704D1D3435B0601D4216C05E083077E
:100B900008D4D3431B0605D4616C01B02046BDE8E0
:100BA00030400847830603D5430601D5C30551D419
:100BB000D3439B064ED443060AD494F85130032BFA
:100BC00049D0636D43F004036365CB688B68009381
:100BD000830609D4636D43F0010363658B6800935A
:100BE0000B6823F040030B60C00506D4606D40F035
:100BF00008006065206880680090606D002829D03A
:100C00002068416821F0E0014160012084F8510032
:100C1000900701D4D00722D02068416821F0030159
:100C20004160114DE06C40B10565E06CFFF7A4FB3D
:100C300018B1606D40F040006065A06C002809D0DC
:100C40000565A06CFFF798FB002803D0606D40F0AD
:100C50004000606538BDC8688868009038BD20468F
:100C6000FFF784FF38BD00002914000870B50400A8
:100C700005D00025A56294F8510010B106E00120CE
:100C800070BD84F85050204600F030F8022084F8FF
:100C900051002068016821F040010160D4E90101A0
:100CA0000843D4E903121143084361690843218BC7
:100CB00001F400710843E1690843216A0843A16A0D
:100CC000084321680860A069042101EA1040616AB4
:100CD0000843216848602068C16921F40061C1614E
:100CE0006565012084F85100002070BDF0B587B023
:100CF000044614216846FFF79BFA314A2168002414
:100D00003048022503260527914226D12D4914316A
:100D10000A6842F480520A60096801F48051059122
:100D2000016841F001010160006802AA00F00100C1
:100D3000059048F2E000CDE9000582E8D000694660
:100D40002148FFF73DFB002211462320FFF784FCDA
:100D50002320FFF773FC07B0F0BD1C4A9142FAD183
:100D6000184910310A6842F480420A60096801F4A7
:100D700080410591016841F004010160016801F0C2
:100D800004010591016841F002010160006802AAB6
:100D900000F0020005900C20CDE9000582E8D000AB
:100DA00069460B48FFF70CFB4FF48060CDE9000566
:100DB00002AA694682E8D0000648FFF701FBCAE7AD
:100DC000003001403038024000000240003800404E
:100DD00000080240000402402DE9F84F044690F854
:100DE000500000271D461646894601280DD04FF0B9
:100DF000010B84F850B0FFF7C1FB804694F8510016
:100E0000BA46012804D002278EE00220BDE8F88F00
:100E1000B9F1000F7DD0002E7BD0032084F8510063
:100E2000C4F854A0C4F83090A686E686C4F838A06A
:100E3000A4F83CA0A4F83EA0C4F844A0C4F840A084
:100E4000A068B0F5004F04D12068016841F48041EA
:100E5000016020680168490603D4016841F040013F
:100E60000160E068B0F5006F606803D030B3012E18
:100E700024D040E008B1012E1CD1206B21680088ED
:100E8000C86006E020688168890709D5216B098858
:100E9000C160206B801C2063E08E401EE08609E06C
:100EA000FFF76CFBA0EB0800A84202D3681C01D03E
:100EB00031E07DB3E08E0028E4D11FE0206B216893
:100EC0000078087306E020688168890709D5216BDE
:100ED00009780173206B401C2063E08E401EE08681
:100EE00009E0FFF74BFBA0EB0800A84202D3681C07
:100EF00001D010E075B1E08E0028E4D142462946C9
:100F0000204600F099FA08B120206065A06820B161
:100F100007E008E0FFE7032706E02068C168806873
:100F20000090606D00B1012784F851B084F850A0A2
:100F300038466BE710B5401EB0F1807F01D3012029
:100F400010BD4FF0E02460610F21601700F08AFCB3
:100F50000020A06107202061002010BD70B590F82E
:100F60003C20012A19D0012400F83C4F0222427093
:100F700050F83C3C5A689D6822F070060A6849683F
:100F8000324325F0800529435A6050F83C2C91608B
:100F9000447000210170084670BD022070BD000041
:100FA0002DE9F041044690F83C000D4601283DD063
:100FB000012684F83C60022084F83D00AAB3042A8C
:100FC00046D02068082A55D0D5E90027E968036A89
:100FD00023F480530362D0F81CC0036A2CF4407CD5
:100FE0004CEA07274FF6FF7C27F470470CEA0131E3
:100FF00039434FF4204723F4204307EA02321A43CF
:10100000C16102622068C16921F44061C161206848
:10101000C169AA6841EA0221C0F81C1084F83D6049
:10102000002084F83C00BDE8F08101E00220FAE7EE
:10103000D5E90012EB68206800F0A6FB2068816902
:1010400021F00C01816120688169AA6811430FE0D9
:10105000D5E90012EB68206800F0E8FB20688169A0
:1010600021F44061816120688169AA6841EA022116
:101070008161D3E7D5E9002C2F7B016A21F48071CF
:101080000162C169036A21F0030141EA0C0121F008
:10109000F00C39074FF420674CEA116123F4206308
:1010A00007EA02221A43C16102622068C16921F085
:1010B0000C01C1612068C169AA681143ACE710B591
:1010C000040003D094F83D0010B107E0012010BDEA
:1010D000002084F83C00204600F00CF8022084F840
:1010E0003D00211D206800F08DFA012084F83D00AC
:1010F000002010BDF0B587B0044614216846FFF704
:1011000097F81F49266800231D4A1039022401253B
:101110001C48B6F1804F1CD01B4FBE4217D1166839
:1011200046F008061660126802F0080205920A6886
:1011300042F001020A6009680095CDE9014301F01F
:101140000101CDE9044103936946FFF739F907B07E
:10115000F0BD166846F001061660126802F0010242
:1011600005920A6842F001020A6009680094CDE91C
:10117000014301F00101CDE904510393E4E70000CC
:101180004038024000000240000C004070B50446A8
:1011900090F83C00012812D0012584F83C50022030
:1011A00084F83D00204600F09BFA01004FF000005B
:1011B00007D084F83D5084F83C00012070BD022027
:1011C00070BD2168CA6822F04002CA602168CA68FE
:1011D00022F48042CA6084F83D5084F83C0000202C
:1011E00070BDFEE72DE9F04786B014216846FFF791
:1011F0001FF82C480024016841F0040101600168D7
:1012000001F004010591016841F0010101600168EC
:1012100001F001010591016841F0020101600068DF
:10122000DFF8848000F00200059000224FF40051A6
:101230004046FFF79DF901224FF4E0714046FFF769
:1012400097F9DFF868904FF4E0560122314648469E
:10125000FFF78EF9DFF858A04FF480770022394667
:101260005046FFF785F94FF4075000900125CDE96E
:101270000154694640460394FFF7A2F80096CDE971
:101280000154694648460394FFF79AF80097CDE960
:101290000154694650460394FFF792F806B0BDE842
:1012A000F087000030380240000802400000024091
:1012B0000004024009480849016000214160816042
:1012C000C1600161416181610162416281620A2103
:1012D000C162FFF7CBBC0000003001402C000020B1
:1012E0000B480A49012201604FF4827141600021DC
:1012F0008160C160C0E904125202C0E906210162A6
:10130000416281620A21C162FFF7B0BC003800402F
:101310008400002030B58BB0142104A8FEF788FFAC
:1013200000241B48009401940294039409944FF004
:1013300080410A94C0E900148460C460046184613F
:10134000FFF7BDFE0420049002256020CDE906547D
:10135000059004A90E480894FFF718FFCDE9004551
:101360000294002269460A480394FFF719FE0120FF
:10137000CDE90050042269460548FFF711FE0994A3
:1013800009A903480A94FFF7E9FD0BB030BD00003E
:10139000DC00002010B58CB0142104A8FEF748FF33
:1013A00000241B4800940194029403940994174963
:1013B0000A94C0E900148460C46004618461FFF78A
:1013C0007EFE042004905020CDE90504079404A972
:1013D0000F480894FFF7DAFE0120CDE9004002949F
:1013E000002269460A480394FFF7DAFD02200090C4
:1013F0000190042269460648FFF7D2FD099409A925
:1014000003480A94FFF7AAFD0CB010BD000C004081
:101410001C010020FEE77047704700000148FFF7FD
:10142000A7BB00002C00002010B5806B0021C187F5
:10143000C186FFF79BFB10BD38B504461248134B1D
:101440000068B0FBF3F04FF47A7358430090606883
:10145000B0F5827F0DD10B460092002280212046FC
:1014600000F016F870B1606D40F020006065032058
:1014700038BD009830B1401E009020688068C0439D
:101480000006F6D5002038BD1400002000366E019D
:101490002DE9F0411D4617460E460446DDF818803A
:1014A00008E0681C06D0FFF769F8A0EB0800A84226
:1014B0000BD255B12068806836EA000030D0002099
:1014C000B842EED10020BDE8F0812068416821F0EB
:1014D000E00141606068B0F5827F0BD1A068B0F593
:1014E000004F02D0B0F5806F04D12068016821F070
:1014F00040010160A06AB0F5005F09D12068016871
:1015000021F4005101602068016841F4005101603C
:10151000012084F85100002084F850000320D2E715
:101520000120CDE77047FFF72FB8000030B593B02A
:1015300030216846FEF77CFE14210CA8FEF778FEE9
:1015400019480025016841F080510160006800F0F1
:10155000805011901548016841F480410160006895
:10156000022400F480401190012003901020009488
:1015700006940490CDE907504FF4A870CDE9090412
:1015800004200B906846FFF763F90CA90F2081E84F
:1015900031004FF4A0500F90E002109005210CA8EC
:1015A000FFF78CF813B030BD4038024000700040A7
:1015B0001048016841F4700101600F48016841F072
:1015C000010101600C4A00210832116002680B4BD6
:1015D0001A400260031D0A4A1A60026822F480223F
:1015E000026005480C3001600249580680390860E5
:1015F0007047000088ED00E000380240FFFFF6FE73
:1016000010300024F0B50268254C264D264E274F99
:10161000274B4FF0804CA04209D0604507D0A8422C
:1016200005D0B04203D0B84201D0984204D122F094
:10163000700E4A6842EA0E02A0421BD0604519D0E3
:10164000A84217D0B04215D0B84213D0984211D05A
:10165000184DA8420ED0184DA8420BD0174DA842E5
:1016600008D0174DA84205D0164DA84202D0164DFD
:10167000A84203D122F44075CA682A434D6922F07A
:1016800080022A4302608A68C2620A688262A042BB
:1016900001D0984201D10969016301214161F0BD86
:1016A000000001400004004000080040000C004021
:1016B0000004014000400140004401400048014056
:1016C00000180040001C00400020004010B5846855
:1016D00042EA032224F47F440A432243826010BD7D
:1016E00010B503689A6822F070044A68224322F019
:1016F00007040A6822439A604A6812F00F0F30D13B
:101700001211082A2DD2DFE802F02C2C2C2C0B21F0
:1017100027040B69D1E902210068FFF7D7FF20E019
:101720000A68052A10D00268136A146A24F00104BA
:10173000146202689469096924F0F00444EA011112
:101740009161006803620CE0012010BD0A6989689C
:10175000006800F008F804E00A698968006800F091
:1017600053F8002010BD10B5036A046A24F0010488
:101770000462846924F0F00444EA021423F00A02AB
:101780000A438461026210BD70B5046A24F001044A
:1017900004628469056A154EB04214D0B0F1804FDE
:1017A00011D0134EB0420ED0124EB0420BD0124E9A
:1017B000B04208D0114EB04205D0114EB04202D016
:1017C000104EB04203D124F00304144301E044F06E
:1017D00001041A0724F0F00444EA126225F00A0317
:1017E00001F00A0119438261016270BD00000140ED
:1017F0000004004000080040000C004000040140CC
:10180000004001400018004010B5036A23F01003A7
:1018100003628369046A23F4704343EA023224F0CA
:10182000A00343EA01118261016210BD30B5046A70
:1018300024F0100404628469056A24F4407444EAC4
:10184000022222F470444FF6FF7202EA033222436E
:10185000A02425F0A00304EA01111943826101626A
:1018600030BDFEE70907090E002804DB00F1E02087
:1018700080F80014704700F00F0000F1E02080F8BD
:10188000141D704702E008C8121F08C1002AFAD1CF
:1018900070477047002001E001C1121F002AFBD1F0
:1018A000704700001CB5FEF777FEFFF73FFEFFF71D
:1018B00099FCFFF7FFFCFFF713FDFFF72BFDFFF788
:1018C00069FD002464490094624801940860084658
:1018D000FEF70DFD0094002269465F480194FEF773
:1018E000E5FC0122140221465C48FEF741FEDFF8C8
:1018F00070915C4E4CF62608A9F800800022402129
:101900003046FEF735FE002280213046FEF730FEDD
:10191000002221463046FEF72BFE4F482346022286
:1019200049466C30FFF758FA012240213046FEF755
:101930001FFE012280213046FEF71AFE01222146B9
:101940003046FEF715FE4FF47A7B5846FEF726FD2B
:10195000454DE700002239462846FEF709FE3E487D
:101960002346022249466C30FFF736FA01223946F7
:101970002846FEF7FDFD4F46A24640F6FF7900BF20
:101980004CF62600374C3880002240212046FEF7D6
:10199000EFFD002280212046FEF7EAFD0022564698
:1019A00051462046FEF7E4FD2B48334602222C49DF
:1019B0006C30FFF711FA012240212046FEF7D8FDD6
:1019C000012280212046FEF7D3FD01223146204628
:1019D000FEF7CEFDD8465846FEF7E0FCE4140022A0
:1019E00021462846FEF7C4FD1B48334602221C4907
:1019F0006C30FFF7F1F9012221462846FEF7B8FDC9
:101A00004046FEF7CBFC7868B246401C00244FF6F7
:101A1000FF784FF48056786008EA8400010201EBF9
:101A200010203880002231462846FEF7A1FD0A48E2
:101A3000534602220A496C30FFF7CEF901223146A3
:101A40002846FEF795FD0120FEF7A8FC641C4C45D6
:101A5000E2DB95E70074004018000020000402401B
:101A600000000020000802400000024000000000CA
:101A70000000000001020304060708099C1A000880
:101A8000000000201800000084180008B41A0008A4
:101A9000180000204805000094180008000000000D
:101AA0000000000001000000100000000000000025
:041AB0000024F4001A
:040000050800018965
:00000001FF
